{
  "contractName": "UserDetails",
  "abi": [
    {
      "constant": true,
      "inputs": [
        {
          "internalType": "string",
          "name": "",
          "type": "string"
        }
      ],
      "name": "map",
      "outputs": [
        {
          "internalType": "uint256",
          "name": "",
          "type": "uint256"
        }
      ],
      "payable": false,
      "stateMutability": "view",
      "type": "function"
    },
    {
      "constant": true,
      "inputs": [
        {
          "internalType": "uint256",
          "name": "",
          "type": "uint256"
        },
        {
          "internalType": "uint256",
          "name": "",
          "type": "uint256"
        }
      ],
      "name": "mytokes",
      "outputs": [
        {
          "internalType": "uint256",
          "name": "",
          "type": "uint256"
        }
      ],
      "payable": false,
      "stateMutability": "view",
      "type": "function"
    },
    {
      "constant": true,
      "inputs": [
        {
          "internalType": "uint256",
          "name": "",
          "type": "uint256"
        }
      ],
      "name": "user",
      "outputs": [
        {
          "internalType": "uint256",
          "name": "uid",
          "type": "uint256"
        },
        {
          "internalType": "string",
          "name": "username",
          "type": "string"
        },
        {
          "internalType": "string",
          "name": "password",
          "type": "string"
        },
        {
          "internalType": "string",
          "name": "public_add",
          "type": "string"
        },
        {
          "internalType": "string",
          "name": "private_add",
          "type": "string"
        },
        {
          "internalType": "uint256",
          "name": "opening_keys",
          "type": "uint256"
        }
      ],
      "payable": false,
      "stateMutability": "view",
      "type": "function"
    },
    {
      "constant": true,
      "inputs": [
        {
          "internalType": "string",
          "name": "_username",
          "type": "string"
        }
      ],
      "name": "getId",
      "outputs": [
        {
          "internalType": "uint256",
          "name": "",
          "type": "uint256"
        }
      ],
      "payable": false,
      "stateMutability": "view",
      "type": "function"
    },
    {
      "constant": true,
      "inputs": [
        {
          "internalType": "string",
          "name": "_username",
          "type": "string"
        }
      ],
      "name": "check_availabality",
      "outputs": [
        {
          "internalType": "bool",
          "name": "",
          "type": "bool"
        }
      ],
      "payable": false,
      "stateMutability": "view",
      "type": "function"
    },
    {
      "constant": false,
      "inputs": [
        {
          "internalType": "string",
          "name": "_username",
          "type": "string"
        },
        {
          "internalType": "string",
          "name": "_password",
          "type": "string"
        },
        {
          "internalType": "string",
          "name": "_pubkey",
          "type": "string"
        },
        {
          "internalType": "string",
          "name": "_prikey",
          "type": "string"
        }
      ],
      "name": "register",
      "outputs": [],
      "payable": false,
      "stateMutability": "nonpayable",
      "type": "function"
    },
    {
      "constant": true,
      "inputs": [
        {
          "internalType": "string",
          "name": "_username",
          "type": "string"
        },
        {
          "internalType": "string",
          "name": "_password",
          "type": "string"
        }
      ],
      "name": "auth",
      "outputs": [
        {
          "internalType": "bool",
          "name": "",
          "type": "bool"
        }
      ],
      "payable": false,
      "stateMutability": "view",
      "type": "function"
    },
    {
      "constant": true,
      "inputs": [
        {
          "internalType": "uint256",
          "name": "_id",
          "type": "uint256"
        }
      ],
      "name": "getpub_key",
      "outputs": [
        {
          "internalType": "string",
          "name": "",
          "type": "string"
        }
      ],
      "payable": false,
      "stateMutability": "view",
      "type": "function"
    },
    {
      "constant": true,
      "inputs": [
        {
          "internalType": "uint256",
          "name": "_id",
          "type": "uint256"
        }
      ],
      "name": "getpri_key",
      "outputs": [
        {
          "internalType": "string",
          "name": "",
          "type": "string"
        }
      ],
      "payable": false,
      "stateMutability": "view",
      "type": "function"
    },
    {
      "constant": true,
      "inputs": [
        {
          "internalType": "uint256",
          "name": "_id",
          "type": "uint256"
        }
      ],
      "name": "getopening_key",
      "outputs": [
        {
          "internalType": "uint256",
          "name": "",
          "type": "uint256"
        }
      ],
      "payable": false,
      "stateMutability": "view",
      "type": "function"
    },
    {
      "constant": false,
      "inputs": [
        {
          "internalType": "uint256",
          "name": "_id",
          "type": "uint256"
        },
        {
          "internalType": "uint256",
          "name": "_tokenID",
          "type": "uint256"
        }
      ],
      "name": "insert_tokens",
      "outputs": [],
      "payable": false,
      "stateMutability": "nonpayable",
      "type": "function"
    },
    {
      "constant": true,
      "inputs": [
        {
          "internalType": "uint256",
          "name": "_id",
          "type": "uint256"
        }
      ],
      "name": "get_tokens",
      "outputs": [
        {
          "internalType": "uint256[]",
          "name": "",
          "type": "uint256[]"
        }
      ],
      "payable": false,
      "stateMutability": "view",
      "type": "function"
    },
    {
      "constant": false,
      "inputs": [
        {
          "internalType": "uint256",
          "name": "_id",
          "type": "uint256"
        }
      ],
      "name": "update_openingkey",
      "outputs": [],
      "payable": false,
      "stateMutability": "nonpayable",
      "type": "function"
    }
  ],
  "bytecode": "0x6080604052600160035534801561001557600080fd5b50611602806100256000396000f3fe608060405234801561001057600080fd5b50600436106100cf5760003560e01c80637b2ebb331161008c578063bee51f3b11610066578063bee51f3b146109bd578063bff5d20214610a8c578063c161752e14610ace578063f9d3236f14610ba1576100cf565b80637b2ebb331461084157806395c5a7cc146108e85780639d324ce41461098f576100cf565b80630e24c52c146100d457806323814fc51461035457806348eed21314610423578063553275be1461058d578063561b40db146107865780637678875a146107be575b600080fd5b610352600480360360808110156100ea57600080fd5b810190808035906020019064010000000081111561010757600080fd5b82018360208201111561011957600080fd5b8035906020019184600183028401116401000000008311171561013b57600080fd5b91908080601f016020809104026020016040519081016040528093929190818152602001838380828437600081840152601f19601f8201169050808301925050505050505091929192908035906020019064010000000081111561019e57600080fd5b8201836020820111156101b057600080fd5b803590602001918460018302840111640100000000831117156101d257600080fd5b91908080601f016020809104026020016040519081016040528093929190818152602001838380828437600081840152601f19601f8201169050808301925050505050505091929192908035906020019064010000000081111561023557600080fd5b82018360208201111561024757600080fd5b8035906020019184600183028401116401000000008311171561026957600080fd5b91908080601f016020809104026020016040519081016040528093929190818152602001838380828437600081840152601f19601f820116905080830192505050505050509192919290803590602001906401000000008111156102cc57600080fd5b8201836020820111156102de57600080fd5b8035906020019184600183028401116401000000008311171561030057600080fd5b91908080601f016020809104026020016040519081016040528093929190818152602001838380828437600081840152601f19601f820116905080830192505050505050509192919290505050610bed565b005b61040d6004803603602081101561036a57600080fd5b810190808035906020019064010000000081111561038757600080fd5b82018360208201111561039957600080fd5b803590602001918460018302840111640100000000831117156103bb57600080fd5b91908080601f016020809104026020016040519081016040528093929190818152602001838380828437600081840152601f19601f820116905080830192505050505050509192919290505050610d5d565b6040518082815260200191505060405180910390f35b6105736004803603604081101561043957600080fd5b810190808035906020019064010000000081111561045657600080fd5b82018360208201111561046857600080fd5b8035906020019184600183028401116401000000008311171561048a57600080fd5b91908080601f016020809104026020016040519081016040528093929190818152602001838380828437600081840152601f19601f820116905080830192505050505050509192919290803590602001906401000000008111156104ed57600080fd5b8201836020820111156104ff57600080fd5b8035906020019184600183028401116401000000008311171561052157600080fd5b91908080601f016020809104026020016040519081016040528093929190818152602001838380828437600081840152601f19601f820116905080830192505050505050509192919290505050610d8b565b604051808215151515815260200191505060405180910390f35b6105b9600480360360208110156105a357600080fd5b8101908080359060200190929190505050610ec0565b604051808781526020018060200180602001806020018060200186815260200185810385528a818151815260200191508051906020019080838360005b838110156106115780820151818401526020810190506105f6565b50505050905090810190601f16801561063e5780820380516001836020036101000a031916815260200191505b50858103845289818151815260200191508051906020019080838360005b8381101561067757808201518184015260208101905061065c565b50505050905090810190601f1680156106a45780820380516001836020036101000a031916815260200191505b50858103835288818151815260200191508051906020019080838360005b838110156106dd5780820151818401526020810190506106c2565b50505050905090810190601f16801561070a5780820380516001836020036101000a031916815260200191505b50858103825287818151815260200191508051906020019080838360005b83811015610743578082015181840152602081019050610728565b50505050905090810190601f1680156107705780820380516001836020036101000a031916815260200191505b509a505050505050505050505060405180910390f35b6107bc6004803603604081101561079c57600080fd5b810190808035906020019092919080359060200190929190505050611169565b005b6107ea600480360360208110156107d457600080fd5b81019080803590602001909291905050506111aa565b6040518080602001828103825283818151815260200191508051906020019060200280838360005b8381101561082d578082015181840152602081019050610812565b505050509050019250505060405180910390f35b61086d6004803603602081101561085757600080fd5b8101908080359060200190929190505050611215565b6040518080602001828103825283818151815260200191508051906020019080838360005b838110156108ad578082015181840152602081019050610892565b50505050905090810190601f1680156108da5780820380516001836020036101000a031916815260200191505b509250505060405180910390f35b610914600480360360208110156108fe57600080fd5b81019080803590602001909291905050506112d8565b6040518080602001828103825283818151815260200191508051906020019080838360005b83811015610954578082015181840152602081019050610939565b50505050905090810190601f1680156109815780820380516001836020036101000a031916815260200191505b509250505060405180910390f35b6109bb600480360360208110156109a557600080fd5b810190808035906020019092919050505061139b565b005b610a76600480360360208110156109d357600080fd5b81019080803590602001906401000000008111156109f057600080fd5b820183602082011115610a0257600080fd5b80359060200191846001830284011164010000000083111715610a2457600080fd5b91908080601f016020809104026020016040519081016040528093929190818152602001838380828437600081840152601f19601f8201169050808301925050505050505091929192905050506113d0565b6040518082815260200191505060405180910390f35b610ab860048036036020811015610aa257600080fd5b8101908080359060200190929190505050611442565b6040518082815260200191505060405180910390f35b610b8760048036036020811015610ae457600080fd5b8101908080359060200190640100000000811115610b0157600080fd5b820183602082011115610b1357600080fd5b80359060200191846001830284011164010000000083111715610b3557600080fd5b91908080601f016020809104026020016040519081016040528093929190818152602001838380828437600081840152601f19601f82011690508083019250505050505050919291929050505061146d565b604051808215151515815260200191505060405180910390f35b610bd760048036036040811015610bb757600080fd5b8101908080359060200190929190803590602001909291905050506114fa565b6040518082815260200191505060405180910390f35b6003546000856040518082805190602001908083835b60208310610c265780518252602082019150602081019050602083039250610c03565b6001836020036101000a03801982511681845116808217855250505050505090500191505090815260200160405180910390208190555060026040518060c001604052806003548152602001868152602001858152602001848152602001838152602001601281525090806001815401808255809150509060018203906000526020600020906006020160009091929091909150600082015181600001556020820151816001019080519060200190610ce0929190611528565b506040820151816002019080519060200190610cfd929190611528565b506060820151816003019080519060200190610d1a929190611528565b506080820151816004019080519060200190610d37929190611528565b5060a0820151816005015550505060036000815480929190600101919050555050505050565b6000818051602081018201805184825260208301602085012081835280955050505050506000915090505481565b6000806000846040518082805190602001908083835b60208310610dc45780518252602082019150602081019050602083039250610da1565b6001836020036101000a03801982511681845116808217855250505050505090500191505090815260200160405180910390205490506000811415610e0d576000915050610eba565b808060019003915050828051906020012060028281548110610e2b57fe5b90600052602060002090600602016002016040518082805460018160011615610100020316600290048015610e975780601f10610e75576101008083540402835291820191610e97565b820191906000526020600020905b815481529060010190602001808311610e83575b505091505060405180910390201415610eb4576001915050610eba565b60009150505b92915050565b60028181548110610ecd57fe5b9060005260206000209060060201600091509050806000015490806001018054600181600116156101000203166002900480601f016020809104026020016040519081016040528092919081815260200182805460018160011615610100020316600290048015610f7f5780601f10610f5457610100808354040283529160200191610f7f565b820191906000526020600020905b815481529060010190602001808311610f6257829003601f168201915b505050505090806002018054600181600116156101000203166002900480601f01602080910402602001604051908101604052809291908181526020018280546001816001161561010002031660029004801561101d5780601f10610ff25761010080835404028352916020019161101d565b820191906000526020600020905b81548152906001019060200180831161100057829003601f168201915b505050505090806003018054600181600116156101000203166002900480601f0160208091040260200160405190810160405280929190818152602001828054600181600116156101000203166002900480156110bb5780601f10611090576101008083540402835291602001916110bb565b820191906000526020600020905b81548152906001019060200180831161109e57829003601f168201915b505050505090806004018054600181600116156101000203166002900480601f0160208091040260200160405190810160405280929190818152602001828054600181600116156101000203166002900480156111595780601f1061112e57610100808354040283529160200191611159565b820191906000526020600020905b81548152906001019060200180831161113c57829003601f168201915b5050505050908060050154905086565b600160008381526020019081526020016000208190806001815401808255809150509060018203906000526020600020016000909192909190915055505050565b60606001600083815260200190815260200160002080548060200260200160405190810160405280929190818152602001828054801561120957602002820191906000526020600020905b8154815260200190600101908083116111f5575b50505050509050919050565b60606002600183038154811061122757fe5b90600052602060002090600602016004018054600181600116156101000203166002900480601f0160208091040260200160405190810160405280929190818152602001828054600181600116156101000203166002900480156112cc5780601f106112a1576101008083540402835291602001916112cc565b820191906000526020600020905b8154815290600101906020018083116112af57829003601f168201915b50505050509050919050565b6060600260018303815481106112ea57fe5b90600052602060002090600602016003018054600181600116156101000203166002900480601f01602080910402602001604051908101604052809291908181526020018280546001816001161561010002031660029004801561138f5780601f106113645761010080835404028352916020019161138f565b820191906000526020600020905b81548152906001019060200180831161137257829003601f168201915b50505050509050919050565b600260018203815481106113ab57fe5b9060005260206000209060060201600501600081548092919060019003919050555050565b600080826040518082805190602001908083835b6020831061140757805182526020820191506020810190506020830392506113e4565b6001836020036101000a0380198251168184511680821785525050505050509050019150509081526020016040518091039020549050919050565b60006002600183038154811061145457fe5b9060005260206000209060060201600501549050919050565b6000806000836040518082805190602001908083835b602083106114a65780518252602082019150602081019050602083039250611483565b6001836020036101000a038019825116818451168082178552505050505050905001915050908152602001604051809103902054905060008114156114ef5760019150506114f5565b60009150505b919050565b6001602052816000526040600020818154811061151357fe5b90600052602060002001600091509150505481565b828054600181600116156101000203166002900490600052602060002090601f016020900481019282601f1061156957805160ff1916838001178555611597565b82800160010185558215611597579182015b8281111561159657825182559160200191906001019061157b565b5b5090506115a491906115a8565b5090565b6115ca91905b808211156115c65760008160009055506001016115ae565b5090565b9056fea265627a7a723158201ff1e4ffc5a9ce63a01fb17797a7eb5cc5fe9acdd3ae6d8528619594ac68b2b764736f6c63430005100032",
  "source": "pragma solidity ^0.5.0;\r\n\r\ncontract UserDetails {\r\n    struct User {\r\n        uint256 uid;\r\n        string username;\r\n        string password;\r\n        string public_add;\r\n        string private_add;\r\n        uint256 opening_keys;\r\n    }\r\n    mapping(string => uint256) public map;\r\n    mapping(uint256 => uint256[]) public mytokes;\r\n    User[] public user;\r\n    uint256 nextId = 1;\r\n\r\n    //----------------functions for new user------------\r\n    function getId(string memory _username) public view returns (uint256) {\r\n        return map[_username];\r\n    }\r\n\r\n    function check_availabality(string memory _username)\r\n        public\r\n        view\r\n        returns (bool)\r\n    {\r\n        uint256 _id = map[_username];\r\n\r\n        if (_id == 0) {\r\n            return true;\r\n        }\r\n\r\n        return false;\r\n    }\r\n\r\n    function register(\r\n        string memory _username,\r\n        string memory _password,\r\n        string memory _pubkey,\r\n        string memory _prikey\r\n    ) public {\r\n        map[_username] = nextId;\r\n        user.push(User(nextId, _username, _password, _pubkey, _prikey, 18));\r\n        nextId++;\r\n    }\r\n\r\n    // -------------------functions for Authenticating EXISTING Users-----------\r\n    function auth(string memory _username, string memory _password)\r\n        public\r\n        view\r\n        returns (bool)\r\n    {\r\n        uint256 _id = map[_username];\r\n\r\n        if (_id == 0) {\r\n            return false;\r\n        }\r\n        _id--; //as array starts with 0;\r\n\r\n        if (\r\n            keccak256(bytes(user[_id].password)) == keccak256(bytes(_password))\r\n        ) {\r\n            return true;\r\n        }\r\n\r\n        return false;\r\n    }\r\n\r\n    // --------------------functions for website -----------------------------\r\n\r\n    function getpub_key(uint256 _id) public view returns (string memory) {\r\n        return (user[_id - 1].public_add);\r\n    }\r\n\r\n    function getpri_key(uint256 _id) public view returns (string memory) {\r\n        return (user[_id - 1].private_add);\r\n    }\r\n\r\n    function getopening_key(uint256 _id) public view returns (uint256) {\r\n        return (user[_id - 1].opening_keys);\r\n    }\r\n\r\n    function insert_tokens(uint256 _id, uint256 _tokenID) public {\r\n        mytokes[_id].push(_tokenID);\r\n    }\r\n\r\n    function get_tokens(uint256 _id) public view returns (uint256[] memory) {\r\n        return mytokes[_id];\r\n    }\r\n\r\n    function update_openingkey(uint256 _id) public {\r\n        user[_id - 1].opening_keys--;\r\n    }\r\n}\r\n",
  "sourcePath": "D:/Tokli/contracts/userdetails.sol",
  "compiler": {
    "name": "solc",
    "version": "0.5.16+commit.9c3226ce.Emscripten.clang"
  },
  "schemaVersion": "3.4.0",
  "updatedAt": "2021-05-09T22:46:00.576Z",
  "networkType": "ethereum",
  "devdoc": {
    "methods": {}
  },
  "userdoc": {
    "methods": {}
  }
}